:100000000201024A4E00004B4E00004B4B00000024
:10001000000000415200004D494D004241000041A6
:10002000414100444E0000000000000000000000BC
:1000300000000000000000000000000000000000C0
:100040000000000000000000000000000000004F61
:100050005300004E4E4E00534F53004254000000D8
:10006000000000494D49004143000000000000002D
:100070000000000000000000000000554B000032AE
:10008000F1F57110F473F030FE75F2333177F6FB51
:1000900072701174F876F9FDF3549C919C73699C0D
:1000A000736161749998A7746D9298A694888C7303
:1000B0004E699D74749998A7A773749C8D65799AFD
:1000C0009A796194A698928F8E9197804E699D74CB
:1000D000659B9B936E73A8A5A09FA1A6A77363922F
:1000E0009C9A8E9473618F92647091939793A29C63
:1000F0008D98989873487495949065749C919C7CA5
:100100005768758130758DF4E589540F2420F58981
:10011000C29FD29ED28EE5874480F587D29CD29929
:10012000C2987D007E00744B1202B21201AE74417F
:100130001202B21201AE12020B900099EE930EC39E
:100140009DFD12016DBE68F174411202B21201AE42
:1001500074521202B21201AE12020B120222C0E05D
:10016000740A3099FDF599C299D0E080B5B42004A5
:10017000120222221202A1500A1202B21201AE127F
:10018000020B221202805018120291ACF01202B23D
:100190001201AEEC900003930CB400F112020B229A
:1001A000C0E074213099FDF599C299D0E022F8C4DD
:1001B000540FF9E8540FE9C3135015F9E8C313F8C5
:1001C00040061201D10201CB1201E812020580E6BD
:1001D00022759000C0E0742E3099FDF599C299D037
:1001E000E01202057590FF22759000C0E0742D307A
:1001F00099FDF599C299D0E012020512020512028A
:10020000057590FF22746412026322C0E0742030EE
:1002100099FDF599C299D0E0120205120205120269
:100220000522C0E074203099FDF599C299D0E01202
:100230000205C0E074203099FDF599C299D0E01212
:100240000205C0E074203099FDF599C299D0E01202
:100250000205C0E074203099FDF599C299D0E012F2
:10026000020522C000C001C002F879147A1600000D
:10027000DAFCD9F8000000D8F1D002D001D0002279
:10028000C3942792D5C39438B0D592D5245FA2D514
:1002900022C3942775F004A4F5F005F090000393B1
:1002A00022C3944192D5C39419B0D592D5245AA2B1
:0C02B000D522C39441F5F090007F93220A
:00000001FF
