:1000000002001328FFC6AB9115043A28FF1FC791C1
:10001000150396758142D290120102400B3099FD72
:10002000759973C2990200303099FD75996EC29925
:100030003099FD75990AC29912010274CC1200AF71
:1000400074441200AF3099FD75992EC29974321222
:1000500000851200CF50EE90000378301200F67841
:100060003012007390000B78301200F678301200D6
:100070007380BD79023099FD759920C299E6081206
:10008000013BD9F122C000C001C002F879147A16F0
:100090000000DAFCD9F8000000D8F1D002D001D07D
:1000A000002274BE1200AF1200E8F608D9F922C08F
:1000B0000078081312011AD8FAD0002274551200E1
:1000C000AFC0017908E0A31200AFD9F9D00122C274
:1000D000907F0100DFFDD2907F0300DFFD00A29042
:1000E0007F1600DFFD000022C4C00078081200CF98
:1000F00013D8FAD000221201021200BC79021200B9
:10010000A222C2907FE600DFFDD2907F1D00DFFDBE
:100110000000A2907FC800DFFD225012C2907F0134
:1001200000DFFDD2907F1F00DFFD00000022C290A3
:100130007F1F00DFFD000000D290223099FD7599ED
:1001400030C2993099FD759962C299C000C001789A
:100150000823F9540124303099FDF599C299E9D862
:06016000F0D001D00022E6
:00000001FF
