:1000000002001328FFC6AB9115043A28FF1FC791C1
:10001000150396758142D290120101400B3099FD73
:10002000759973C2990200303099FD75996EC29925
:100030003099FD75990AC29912010174CC1200AF72
:1000400074441200AF3099FD75992EC29974321222
:1000500000851200CF50EE90000378301200F57842
:100060003012007390000B78301200F578301200D7
:100070007380BD79023099FD759920C299E6081206
:10008000013AD9F122C000C001C002F879147A16F1
:100090000000DAFCD9F8000000D8F1D002D001D07D
:1000A000002274BE1200AF1200E8F608D9F922C08F
:1000B00000780813120119D8FAD0002274551200E2
:1000C000AFC0017908E0A31200AFD9F9D00122C274
:1000D000907F0100DFFDD2907F0300DFFD00A29042
:1000E0007F1600DFFD000022C00078081200CF1349
:1000F000D8FAD000221201011200BC79021200A22B
:1001000022C2907FE600DFFDD2907F1D00DFFD0060
:1001100000A2907FC800DFFD225012C2907F010034
:10012000DFFDD2907F1F00DFFD00000022C2907F24
:100130001F00DFFD000000D290223099FD7599303C
:10014000C2993099FD759962C299C000C0017808C2
:1001500023F9540124303099FDF599C299E9D8F07A
:05016000D001D00022D7
:00000001FF
